{
  "_format": "hh-sol-artifact-1",
  "contractName": "MyEpicNFT",
  "sourceName": "contracts/MyEpicNFT.sol",
  "abi": [
    {
      "inputs": [],
      "stateMutability": "nonpayable",
      "type": "constructor"
    },
    {
      "anonymous": false,
      "inputs": [
        {
          "indexed": true,
          "internalType": "address",
          "name": "owner",
          "type": "address"
        },
        {
          "indexed": true,
          "internalType": "address",
          "name": "approved",
          "type": "address"
        },
        {
          "indexed": true,
          "internalType": "uint256",
          "name": "tokenId",
          "type": "uint256"
        }
      ],
      "name": "Approval",
      "type": "event"
    },
    {
      "anonymous": false,
      "inputs": [
        {
          "indexed": true,
          "internalType": "address",
          "name": "owner",
          "type": "address"
        },
        {
          "indexed": true,
          "internalType": "address",
          "name": "operator",
          "type": "address"
        },
        {
          "indexed": false,
          "internalType": "bool",
          "name": "approved",
          "type": "bool"
        }
      ],
      "name": "ApprovalForAll",
      "type": "event"
    },
    {
      "anonymous": false,
      "inputs": [
        {
          "indexed": false,
          "internalType": "address",
          "name": "sender",
          "type": "address"
        },
        {
          "indexed": false,
          "internalType": "uint256",
          "name": "tokenId",
          "type": "uint256"
        }
      ],
      "name": "NewEpicNFTMinted",
      "type": "event"
    },
    {
      "anonymous": false,
      "inputs": [
        {
          "indexed": true,
          "internalType": "address",
          "name": "from",
          "type": "address"
        },
        {
          "indexed": true,
          "internalType": "address",
          "name": "to",
          "type": "address"
        },
        {
          "indexed": true,
          "internalType": "uint256",
          "name": "tokenId",
          "type": "uint256"
        }
      ],
      "name": "Transfer",
      "type": "event"
    },
    {
      "inputs": [
        {
          "internalType": "address",
          "name": "to",
          "type": "address"
        },
        {
          "internalType": "uint256",
          "name": "tokenId",
          "type": "uint256"
        }
      ],
      "name": "approve",
      "outputs": [],
      "stateMutability": "nonpayable",
      "type": "function"
    },
    {
      "inputs": [
        {
          "internalType": "address",
          "name": "owner",
          "type": "address"
        }
      ],
      "name": "balanceOf",
      "outputs": [
        {
          "internalType": "uint256",
          "name": "",
          "type": "uint256"
        }
      ],
      "stateMutability": "view",
      "type": "function"
    },
    {
      "inputs": [
        {
          "internalType": "uint256",
          "name": "tokenId",
          "type": "uint256"
        }
      ],
      "name": "getApproved",
      "outputs": [
        {
          "internalType": "address",
          "name": "",
          "type": "address"
        }
      ],
      "stateMutability": "view",
      "type": "function"
    },
    {
      "inputs": [],
      "name": "getTotalNFTsMinted",
      "outputs": [
        {
          "internalType": "uint256",
          "name": "",
          "type": "uint256"
        }
      ],
      "stateMutability": "view",
      "type": "function"
    },
    {
      "inputs": [
        {
          "internalType": "address",
          "name": "owner",
          "type": "address"
        },
        {
          "internalType": "address",
          "name": "operator",
          "type": "address"
        }
      ],
      "name": "isApprovedForAll",
      "outputs": [
        {
          "internalType": "bool",
          "name": "",
          "type": "bool"
        }
      ],
      "stateMutability": "view",
      "type": "function"
    },
    {
      "inputs": [],
      "name": "makeAnEpicNFT",
      "outputs": [],
      "stateMutability": "nonpayable",
      "type": "function"
    },
    {
      "inputs": [],
      "name": "name",
      "outputs": [
        {
          "internalType": "string",
          "name": "",
          "type": "string"
        }
      ],
      "stateMutability": "view",
      "type": "function"
    },
    {
      "inputs": [
        {
          "internalType": "uint256",
          "name": "tokenId",
          "type": "uint256"
        }
      ],
      "name": "ownerOf",
      "outputs": [
        {
          "internalType": "address",
          "name": "",
          "type": "address"
        }
      ],
      "stateMutability": "view",
      "type": "function"
    },
    {
      "inputs": [
        {
          "internalType": "uint256",
          "name": "tokenId",
          "type": "uint256"
        }
      ],
      "name": "pickRandomColor",
      "outputs": [
        {
          "internalType": "string",
          "name": "",
          "type": "string"
        }
      ],
      "stateMutability": "view",
      "type": "function"
    },
    {
      "inputs": [
        {
          "internalType": "uint256",
          "name": "tokenId",
          "type": "uint256"
        }
      ],
      "name": "pickRandomFirstWord",
      "outputs": [
        {
          "internalType": "string",
          "name": "",
          "type": "string"
        }
      ],
      "stateMutability": "view",
      "type": "function"
    },
    {
      "inputs": [
        {
          "internalType": "uint256",
          "name": "tokenId",
          "type": "uint256"
        }
      ],
      "name": "pickRandomSecondWord",
      "outputs": [
        {
          "internalType": "string",
          "name": "",
          "type": "string"
        }
      ],
      "stateMutability": "view",
      "type": "function"
    },
    {
      "inputs": [
        {
          "internalType": "address",
          "name": "from",
          "type": "address"
        },
        {
          "internalType": "address",
          "name": "to",
          "type": "address"
        },
        {
          "internalType": "uint256",
          "name": "tokenId",
          "type": "uint256"
        }
      ],
      "name": "safeTransferFrom",
      "outputs": [],
      "stateMutability": "nonpayable",
      "type": "function"
    },
    {
      "inputs": [
        {
          "internalType": "address",
          "name": "from",
          "type": "address"
        },
        {
          "internalType": "address",
          "name": "to",
          "type": "address"
        },
        {
          "internalType": "uint256",
          "name": "tokenId",
          "type": "uint256"
        },
        {
          "internalType": "bytes",
          "name": "_data",
          "type": "bytes"
        }
      ],
      "name": "safeTransferFrom",
      "outputs": [],
      "stateMutability": "nonpayable",
      "type": "function"
    },
    {
      "inputs": [
        {
          "internalType": "address",
          "name": "operator",
          "type": "address"
        },
        {
          "internalType": "bool",
          "name": "approved",
          "type": "bool"
        }
      ],
      "name": "setApprovalForAll",
      "outputs": [],
      "stateMutability": "nonpayable",
      "type": "function"
    },
    {
      "inputs": [
        {
          "internalType": "bytes4",
          "name": "interfaceId",
          "type": "bytes4"
        }
      ],
      "name": "supportsInterface",
      "outputs": [
        {
          "internalType": "bool",
          "name": "",
          "type": "bool"
        }
      ],
      "stateMutability": "view",
      "type": "function"
    },
    {
      "inputs": [],
      "name": "symbol",
      "outputs": [
        {
          "internalType": "string",
          "name": "",
          "type": "string"
        }
      ],
      "stateMutability": "view",
      "type": "function"
    },
    {
      "inputs": [
        {
          "internalType": "uint256",
          "name": "tokenId",
          "type": "uint256"
        }
      ],
      "name": "tokenURI",
      "outputs": [
        {
          "internalType": "string",
          "name": "",
          "type": "string"
        }
      ],
      "stateMutability": "view",
      "type": "function"
    },
    {
      "inputs": [
        {
          "internalType": "address",
          "name": "from",
          "type": "address"
        },
        {
          "internalType": "address",
          "name": "to",
          "type": "address"
        },
        {
          "internalType": "uint256",
          "name": "tokenId",
          "type": "uint256"
        }
      ],
      "name": "transferFrom",
      "outputs": [],
      "stateMutability": "nonpayable",
      "type": "function"
    }
  ],
  "bytecode": "0x6080604052603260085560405180610100016040528060d38152602001620043c160d39139600990805190602001906200003b929190620006ee565b506040518060800160405280605681526020016200449460569139600a90805190602001906200006d929190620006ee565b506040518060e001604052806040518060400160405280600481526020017f484f444c0000000000000000000000000000000000000000000000000000000081525081526020016040518060400160405280600381526020017f465544000000000000000000000000000000000000000000000000000000000081525081526020016040518060400160405280600481526020017f534154530000000000000000000000000000000000000000000000000000000081525081526020016040518060400160405280600581526020017f5748414c4500000000000000000000000000000000000000000000000000000081525081526020016040518060400160405280600481526020017f464f4d4f0000000000000000000000000000000000000000000000000000000081525081526020016040518060400160405280600481526020017f52454b540000000000000000000000000000000000000000000000000000000081525081526020016040518060400160405280600581526020017f5348494c4c000000000000000000000000000000000000000000000000000000815250815250600b906007620002269291906200077f565b506040518060c001604052806040518060400160405280600481526020017f484653500000000000000000000000000000000000000000000000000000000081525081526020016040518060400160405280600481526020017f4e474d490000000000000000000000000000000000000000000000000000000081525081526020016040518060400160405280600481526020017f484653520000000000000000000000000000000000000000000000000000000081525081526020016040518060400160405280600481526020017f425446440000000000000000000000000000000000000000000000000000000081525081526020016040518060400160405280600a81526020017f504150455248414e44530000000000000000000000000000000000000000000081525081526020016040518060400160405280600c81526020017f4449414d4f4e4448414e44530000000000000000000000000000000000000000815250815250600c906006620003a4929190620007e6565b506040518060c001604052806040518060400160405280600381526020017f726564000000000000000000000000000000000000000000000000000000000081525081526020016040518060400160405280600781526020017f233038433241380000000000000000000000000000000000000000000000000081525081526020016040518060400160405280600581526020017f626c61636b00000000000000000000000000000000000000000000000000000081525081526020016040518060400160405280600681526020017f79656c6c6f77000000000000000000000000000000000000000000000000000081525081526020016040518060400160405280600481526020017f626c75650000000000000000000000000000000000000000000000000000000081525081526020016040518060400160405280600581526020017f677265656e000000000000000000000000000000000000000000000000000000815250815250600d90600662000522929190620007e6565b503480156200053057600080fd5b506040518060400160405280601081526020017f43727970746f537175617265734e4654000000000000000000000000000000008152506040518060400160405280600d81526020017f43525950544f53515541524553000000000000000000000000000000000000008152508160009080519060200190620005b5929190620006ee565b508060019080519060200190620005ce929190620006ee565b5050506200061c6040518060400160405280601e81526020017f54686973206973206d79204e465420636f6e74726163742e20576f61682100008152506200062260201b620012b31760201c565b62000a07565b620006c2816040516024016200063991906200091b565b6040516020818303038152906040527f41304fac000000000000000000000000000000000000000000000000000000007bffffffffffffffffffffffffffffffffffffffffffffffffffffffff19166020820180517bffffffffffffffffffffffffffffffffffffffffffffffffffffffff8381831617835250505050620006c560201b60201c565b50565b60008151905060006a636f6e736f6c652e6c6f679050602083016000808483855afa5050505050565b828054620006fc9062000991565b90600052602060002090601f0160209004810192826200072057600085556200076c565b82601f106200073b57805160ff19168380011785556200076c565b828001600101855582156200076c579182015b828111156200076b5782518255916020019190600101906200074e565b5b5090506200077b91906200084d565b5090565b828054828255906000526020600020908101928215620007d3579160200282015b82811115620007d2578251829080519060200190620007c1929190620006ee565b5091602001919060010190620007a0565b5b509050620007e291906200086c565b5090565b8280548282559060005260206000209081019282156200083a579160200282015b828111156200083957825182908051906020019062000828929190620006ee565b509160200191906001019062000807565b5b5090506200084991906200086c565b5090565b5b80821115620008685760008160009055506001016200084e565b5090565b5b8082111562000890576000818162000886919062000894565b506001016200086d565b5090565b508054620008a29062000991565b6000825580601f10620008b65750620008d7565b601f016020900490600052602060002090810190620008d691906200084d565b5b50565b6000620008e7826200093f565b620008f381856200094a565b9350620009058185602086016200095b565b6200091081620009f6565b840191505092915050565b60006020820190508181036000830152620009378184620008da565b905092915050565b600081519050919050565b600082825260208201905092915050565b60005b838110156200097b5780820151818401526020810190506200095e565b838111156200098b576000848401525b50505050565b60006002820490506001821680620009aa57607f821691505b60208210811415620009c157620009c0620009c7565b5b50919050565b7f4e487b7100000000000000000000000000000000000000000000000000000000600052602260045260246000fd5b6000601f19601f8301169050919050565b6139aa8062000a176000396000f3fe608060405234801561001057600080fd5b50600436106101165760003560e01c806370a08231116100a2578063b4c3b8be11610071578063b4c3b8be14610317578063b88d4fde14610335578063c87b56dd14610351578063de9d132f14610381578063e985e9c51461038b57610116565b806370a082311461027d57806395d89b41146102ad578063a22cb465146102cb578063b187301f146102e757610116565b806323b872dd116100e957806323b872dd146101b55780632de38d68146101d157806342842e0e14610201578063514dc8c61461021d5780636352211e1461024d57610116565b806301ffc9a71461011b57806306fdde031461014b578063081812fc14610169578063095ea7b314610199575b600080fd5b61013560048036038101906101309190612546565b6103bb565b6040516101429190613200565b60405180910390f35b61015361049d565b604051610160919061321b565b60405180910390f35b610183600480360381019061017e9190612598565b61052f565b6040516101909190613170565b60405180910390f35b6101b360048036038101906101ae919061250a565b6105b4565b005b6101cf60048036038101906101ca9190612404565b6106cc565b005b6101eb60048036038101906101e69190612598565b61072c565b6040516101f8919061321b565b60405180910390f35b61021b60048036038101906102169190612404565b61084a565b005b61023760048036038101906102329190612598565b61086a565b604051610244919061321b565b60405180910390f35b61026760048036038101906102629190612598565b610988565b6040516102749190613170565b60405180910390f35b6102976004803603810190610292919061239f565b610a3a565b6040516102a4919061349b565b60405180910390f35b6102b5610af2565b6040516102c2919061321b565b60405180910390f35b6102e560048036038101906102e091906124ce565b610b84565b005b61030160048036038101906102fc9190612598565b610d05565b60405161030e919061321b565b60405180910390f35b61031f610e23565b60405161032c919061349b565b60405180910390f35b61034f600480360381019061034a9190612453565b610e34565b005b61036b60048036038101906103669190612598565b610e96565b604051610378919061321b565b60405180910390f35b610389610fe8565b005b6103a560048036038101906103a091906123c8565b61121f565b6040516103b29190613200565b60405180910390f35b60007f80ac58cd000000000000000000000000000000000000000000000000000000007bffffffffffffffffffffffffffffffffffffffffffffffffffffffff1916827bffffffffffffffffffffffffffffffffffffffffffffffffffffffff1916148061048657507f5b5e139f000000000000000000000000000000000000000000000000000000007bffffffffffffffffffffffffffffffffffffffffffffffffffffffff1916827bffffffffffffffffffffffffffffffffffffffffffffffffffffffff1916145b8061049657506104958261134c565b5b9050919050565b6060600080546104ac9061373a565b80601f01602080910402602001604051908101604052809291908181526020018280546104d89061373a565b80156105255780601f106104fa57610100808354040283529160200191610525565b820191906000526020600020905b81548152906001019060200180831161050857829003601f168201915b5050505050905090565b600061053a826113b6565b610579576040517f08c379a0000000000000000000000000000000000000000000000000000000008152600401610570906133fb565b60405180910390fd5b6004600083815260200190815260200160002060009054906101000a900473ffffffffffffffffffffffffffffffffffffffff169050919050565b60006105bf82610988565b90508073ffffffffffffffffffffffffffffffffffffffff168373ffffffffffffffffffffffffffffffffffffffff161415610630576040517f08c379a00000000000000000000000000000000000000000000000000000000081526004016106279061345b565b60405180910390fd5b8073ffffffffffffffffffffffffffffffffffffffff1661064f611422565b73ffffffffffffffffffffffffffffffffffffffff16148061067e575061067d81610678611422565b61121f565b5b6106bd576040517f08c379a00000000000000000000000000000000000000000000000000000000081526004016106b49061333b565b60405180910390fd5b6106c7838361142a565b505050565b6106dd6106d7611422565b826114e3565b61071c576040517f08c379a00000000000000000000000000000000000000000000000000000000081526004016107139061347b565b60405180910390fd5b6107278383836115c1565b505050565b6060600061076061073c8461181d565b60405160200161074c919061310a565b6040516020818303038152906040526119ca565b9050600b805490508161077391906137b5565b9050600b81815481106107af577f4e487b7100000000000000000000000000000000000000000000000000000000600052603260045260246000fd5b9060005260206000200180546107c49061373a565b80601f01602080910402602001604051908101604052809291908181526020018280546107f09061373a565b801561083d5780601f106108125761010080835404028352916020019161083d565b820191906000526020600020905b81548152906001019060200180831161082057829003601f168201915b5050505050915050919050565b61086583838360405180602001604052806000815250610e34565b505050565b6060600061089e61087a8461181d565b60405160200161088a919061314e565b6040516020818303038152906040526119ca565b9050600d80549050816108b191906137b5565b9050600d81815481106108ed577f4e487b7100000000000000000000000000000000000000000000000000000000600052603260045260246000fd5b9060005260206000200180546109029061373a565b80601f016020809104026020016040519081016040528092919081815260200182805461092e9061373a565b801561097b5780601f106109505761010080835404028352916020019161097b565b820191906000526020600020905b81548152906001019060200180831161095e57829003601f168201915b5050505050915050919050565b6000806002600084815260200190815260200160002060009054906101000a900473ffffffffffffffffffffffffffffffffffffffff169050600073ffffffffffffffffffffffffffffffffffffffff168173ffffffffffffffffffffffffffffffffffffffff161415610a31576040517f08c379a0000000000000000000000000000000000000000000000000000000008152600401610a289061337b565b60405180910390fd5b80915050919050565b60008073ffffffffffffffffffffffffffffffffffffffff168273ffffffffffffffffffffffffffffffffffffffff161415610aab576040517f08c379a0000000000000000000000000000000000000000000000000000000008152600401610aa29061335b565b60405180910390fd5b600360008373ffffffffffffffffffffffffffffffffffffffff1673ffffffffffffffffffffffffffffffffffffffff168152602001908152602001600020549050919050565b606060018054610b019061373a565b80601f0160208091040260200160405190810160405280929190818152602001828054610b2d9061373a565b8015610b7a5780601f10610b4f57610100808354040283529160200191610b7a565b820191906000526020600020905b815481529060010190602001808311610b5d57829003601f168201915b5050505050905090565b610b8c611422565b73ffffffffffffffffffffffffffffffffffffffff168273ffffffffffffffffffffffffffffffffffffffff161415610bfa576040517f08c379a0000000000000000000000000000000000000000000000000000000008152600401610bf1906132db565b60405180910390fd5b8060056000610c07611422565b73ffffffffffffffffffffffffffffffffffffffff1673ffffffffffffffffffffffffffffffffffffffff16815260200190815260200160002060008473ffffffffffffffffffffffffffffffffffffffff1673ffffffffffffffffffffffffffffffffffffffff16815260200190815260200160002060006101000a81548160ff0219169083151502179055508173ffffffffffffffffffffffffffffffffffffffff16610cb4611422565b73ffffffffffffffffffffffffffffffffffffffff167f17307eab39ab6107e8899845ad3d59bd9653f200f220920489ca2b5937696c3183604051610cf99190613200565b60405180910390a35050565b60606000610d39610d158461181d565b604051602001610d2591906130a3565b6040516020818303038152906040526119ca565b9050600c8054905081610d4c91906137b5565b9050600c8181548110610d88577f4e487b7100000000000000000000000000000000000000000000000000000000600052603260045260246000fd5b906000526020600020018054610d9d9061373a565b80601f0160208091040260200160405190810160405280929190818152602001828054610dc99061373a565b8015610e165780601f10610deb57610100808354040283529160200191610e16565b820191906000526020600020905b815481529060010190602001808311610df957829003601f168201915b5050505050915050919050565b6000610e2f60076119fd565b905090565b610e45610e3f611422565b836114e3565b610e84576040517f08c379a0000000000000000000000000000000000000000000000000000000008152600401610e7b9061347b565b60405180910390fd5b610e9084848484611a0b565b50505050565b6060610ea1826113b6565b610ee0576040517f08c379a0000000000000000000000000000000000000000000000000000000008152600401610ed7906133db565b60405180910390fd5b6000600660008481526020019081526020016000208054610f009061373a565b80601f0160208091040260200160405190810160405280929190818152602001828054610f2c9061373a565b8015610f795780601f10610f4e57610100808354040283529160200191610f79565b820191906000526020600020905b815481529060010190602001808311610f5c57829003601f168201915b505050505090506000610f8a611a67565b9050600081511415610fa0578192505050610fe3565b600082511115610fd5578082604051602001610fbd929190613007565b60405160208183030381529060405292505050610fe3565b610fde84611a7e565b925050505b919050565b600854610ff560076119fd565b10611035576040517f08c379a000000000000000000000000000000000000000000000000000000000815260040161102c906132fb565b60405180910390fd5b600061104160076119fd565b9050600061104e8261072c565b9050600061105b83610d05565b90506000828260405160200161107292919061302b565b6040516020818303038152906040529050600061108e8561086a565b90506000600982600a856040516020016110ab949392919061305a565b604051602081830303815290604052905060006110f0846110cb84611b25565b6040516020016110dc9291906130c5565b604051602081830303815290604052611b25565b9050600081604051602001611105919061312c565b60405160208183030381529060405290506111546040518060400160405280601581526020017f0a2d2d2d2d2d2d2d2d2d2d2d2d2d2d2d2d2d2d2d2d00000000000000000000008152506112b3565b61115d816112b3565b61119b6040518060400160405280601581526020017f2d2d2d2d2d2d2d2d2d2d2d2d2d2d2d2d2d2d2d2d0a00000000000000000000008152506112b3565b6111a53389611ce3565b6111af8882611d01565b6111b96007611d75565b6111dc604051806060016040528060258152602001613910602591398933611d8b565b7febb98688741ffa4c7589bf325de30cf7becb63de567842e1ccdb6cb949fdc82c338960405161120d9291906131d7565b60405180910390a15050505050505050565b6000600560008473ffffffffffffffffffffffffffffffffffffffff1673ffffffffffffffffffffffffffffffffffffffff16815260200190815260200160002060008373ffffffffffffffffffffffffffffffffffffffff1673ffffffffffffffffffffffffffffffffffffffff16815260200190815260200160002060009054906101000a900460ff16905092915050565b611349816040516024016112c7919061321b565b6040516020818303038152906040527f41304fac000000000000000000000000000000000000000000000000000000007bffffffffffffffffffffffffffffffffffffffffffffffffffffffff19166020820180517bffffffffffffffffffffffffffffffffffffffffffffffffffffffff8381831617835250505050611e2a565b50565b60007f01ffc9a7000000000000000000000000000000000000000000000000000000007bffffffffffffffffffffffffffffffffffffffffffffffffffffffff1916827bffffffffffffffffffffffffffffffffffffffffffffffffffffffff1916149050919050565b60008073ffffffffffffffffffffffffffffffffffffffff166002600084815260200190815260200160002060009054906101000a900473ffffffffffffffffffffffffffffffffffffffff1673ffffffffffffffffffffffffffffffffffffffff1614159050919050565b600033905090565b816004600083815260200190815260200160002060006101000a81548173ffffffffffffffffffffffffffffffffffffffff021916908373ffffffffffffffffffffffffffffffffffffffff160217905550808273ffffffffffffffffffffffffffffffffffffffff1661149d83610988565b73ffffffffffffffffffffffffffffffffffffffff167f8c5be1e5ebec7d5bd14f71427d1e84f3dd0314c0f7b2291e5b200ac8c7c3b92560405160405180910390a45050565b60006114ee826113b6565b61152d576040517f08c379a00000000000000000000000000000000000000000000000000000000081526004016115249061331b565b60405180910390fd5b600061153883610988565b90508073ffffffffffffffffffffffffffffffffffffffff168473ffffffffffffffffffffffffffffffffffffffff1614806115a757508373ffffffffffffffffffffffffffffffffffffffff1661158f8461052f565b73ffffffffffffffffffffffffffffffffffffffff16145b806115b857506115b7818561121f565b5b91505092915050565b8273ffffffffffffffffffffffffffffffffffffffff166115e182610988565b73ffffffffffffffffffffffffffffffffffffffff1614611637576040517f08c379a000000000000000000000000000000000000000000000000000000000815260040161162e9061341b565b60405180910390fd5b600073ffffffffffffffffffffffffffffffffffffffff168273ffffffffffffffffffffffffffffffffffffffff1614156116a7576040517f08c379a000000000000000000000000000000000000000000000000000000000815260040161169e906132bb565b60405180910390fd5b6116b2838383611e53565b6116bd60008261142a565b6001600360008573ffffffffffffffffffffffffffffffffffffffff1673ffffffffffffffffffffffffffffffffffffffff168152602001908152602001600020600082825461170d9190613650565b925050819055506001600360008473ffffffffffffffffffffffffffffffffffffffff1673ffffffffffffffffffffffffffffffffffffffff1681526020019081526020016000206000828254611764919061356f565b92505081905550816002600083815260200190815260200160002060006101000a81548173ffffffffffffffffffffffffffffffffffffffff021916908373ffffffffffffffffffffffffffffffffffffffff160217905550808273ffffffffffffffffffffffffffffffffffffffff168473ffffffffffffffffffffffffffffffffffffffff167fddf252ad1be2c89b69c2b068fc378daa952ba7f163c4a11628f55a4df523b3ef60405160405180910390a4505050565b60606000821415611865576040518060400160405280600181526020017f300000000000000000000000000000000000000000000000000000000000000081525090506119c5565b600082905060005b600082146118975780806118809061376c565b915050600a8261189091906135c5565b915061186d565b60008167ffffffffffffffff8111156118d9577f4e487b7100000000000000000000000000000000000000000000000000000000600052604160045260246000fd5b6040519080825280601f01601f19166020018201604052801561190b5781602001600182028036833780820191505090505b5090505b600085146119be576001826119249190613650565b9150600a8561193391906137b5565b603061193f919061356f565b60f81b81838151811061197b577f4e487b7100000000000000000000000000000000000000000000000000000000600052603260045260246000fd5b60200101907effffffffffffffffffffffffffffffffffffffffffffffffffffffffffffff1916908160001a905350600a856119b791906135c5565b945061190f565b8093505050505b919050565b6000816040516020016119dd9190612ff0565b6040516020818303038152906040528051906020012060001c9050919050565b600081600001549050919050565b611a168484846115c1565b611a2284848484611e58565b611a61576040517f08c379a0000000000000000000000000000000000000000000000000000000008152600401611a589061327b565b60405180910390fd5b50505050565b606060405180602001604052806000815250905090565b6060611a89826113b6565b611ac8576040517f08c379a0000000000000000000000000000000000000000000000000000000008152600401611abf9061343b565b60405180910390fd5b6000611ad2611a67565b90506000815111611af25760405180602001604052806000815250611b1d565b80611afc8461181d565b604051602001611b0d929190613007565b6040516020818303038152906040525b915050919050565b60606000825190506000811415611b4e5760405180602001604052806000815250915050611cde565b60006003600283611b5f919061356f565b611b6991906135c5565b6004611b7591906135f6565b90506000602082611b86919061356f565b67ffffffffffffffff811115611bc5577f4e487b7100000000000000000000000000000000000000000000000000000000600052604160045260246000fd5b6040519080825280601f01601f191660200182016040528015611bf75781602001600182028036833780820191505090505b5090506000604051806060016040528060408152602001613935604091399050600181016020830160005b86811015611c9b5760038101905062ffffff818a015116603f8160121c168401518060081b905060ff603f83600c1c1686015116810190508060081b905060ff603f8360061c1686015116810190508060081b905060ff603f831686015116810190508060e01b90508084526004840193505050611c22565b506003860660018114611cb55760028114611cc557611cd0565b613d3d60f01b6002830352611cd0565b603d60f81b60018303525b508484525050819450505050505b919050565b611cfd828260405180602001604052806000815250611fef565b5050565b611d0a826113b6565b611d49576040517f08c379a0000000000000000000000000000000000000000000000000000000008152600401611d409061339b565b60405180910390fd5b80600660008481526020019081526020016000209080519060200190611d7092919061222b565b505050565b6001816000016000828254019250508190555050565b611e25838383604051602401611da39392919061323d565b6040516020818303038152906040527fe3849f79000000000000000000000000000000000000000000000000000000007bffffffffffffffffffffffffffffffffffffffffffffffffffffffff19166020820180517bffffffffffffffffffffffffffffffffffffffffffffffffffffffff8381831617835250505050611e2a565b505050565b60008151905060006a636f6e736f6c652e6c6f679050602083016000808483855afa5050505050565b505050565b6000611e798473ffffffffffffffffffffffffffffffffffffffff1661204a565b15611fe2578373ffffffffffffffffffffffffffffffffffffffff1663150b7a02611ea2611422565b8786866040518563ffffffff1660e01b8152600401611ec4949392919061318b565b602060405180830381600087803b158015611ede57600080fd5b505af1925050508015611f0f57506040513d601f19601f82011682018060405250810190611f0c919061256f565b60015b611f92573d8060008114611f3f576040519150601f19603f3d011682016040523d82523d6000602084013e611f44565b606091505b50600081511415611f8a576040517f08c379a0000000000000000000000000000000000000000000000000000000008152600401611f819061327b565b60405180910390fd5b805181602001fd5b63150b7a0260e01b7bffffffffffffffffffffffffffffffffffffffffffffffffffffffff1916817bffffffffffffffffffffffffffffffffffffffffffffffffffffffff191614915050611fe7565b600190505b949350505050565b611ff9838361205d565b6120066000848484611e58565b612045576040517f08c379a000000000000000000000000000000000000000000000000000000000815260040161203c9061327b565b60405180910390fd5b505050565b600080823b905060008111915050919050565b600073ffffffffffffffffffffffffffffffffffffffff168273ffffffffffffffffffffffffffffffffffffffff1614156120cd576040517f08c379a00000000000000000000000000000000000000000000000000000000081526004016120c4906133bb565b60405180910390fd5b6120d6816113b6565b15612116576040517f08c379a000000000000000000000000000000000000000000000000000000000815260040161210d9061329b565b60405180910390fd5b61212260008383611e53565b6001600360008473ffffffffffffffffffffffffffffffffffffffff1673ffffffffffffffffffffffffffffffffffffffff1681526020019081526020016000206000828254612172919061356f565b92505081905550816002600083815260200190815260200160002060006101000a81548173ffffffffffffffffffffffffffffffffffffffff021916908373ffffffffffffffffffffffffffffffffffffffff160217905550808273ffffffffffffffffffffffffffffffffffffffff16600073ffffffffffffffffffffffffffffffffffffffff167fddf252ad1be2c89b69c2b068fc378daa952ba7f163c4a11628f55a4df523b3ef60405160405180910390a45050565b8280546122379061373a565b90600052602060002090601f01602090048101928261225957600085556122a0565b82601f1061227257805160ff19168380011785556122a0565b828001600101855582156122a0579182015b8281111561229f578251825591602001919060010190612284565b5b5090506122ad91906122b1565b5090565b5b808211156122ca5760008160009055506001016122b2565b5090565b60006122e16122dc846134e7565b6134b6565b9050828152602081018484840111156122f957600080fd5b6123048482856136f8565b509392505050565b60008135905061231b816138b3565b92915050565b600081359050612330816138ca565b92915050565b600081359050612345816138e1565b92915050565b60008151905061235a816138e1565b92915050565b600082601f83011261237157600080fd5b81356123818482602086016122ce565b91505092915050565b600081359050612399816138f8565b92915050565b6000602082840312156123b157600080fd5b60006123bf8482850161230c565b91505092915050565b600080604083850312156123db57600080fd5b60006123e98582860161230c565b92505060206123fa8582860161230c565b9150509250929050565b60008060006060848603121561241957600080fd5b60006124278682870161230c565b93505060206124388682870161230c565b92505060406124498682870161238a565b9150509250925092565b6000806000806080858703121561246957600080fd5b60006124778782880161230c565b94505060206124888782880161230c565b93505060406124998782880161238a565b925050606085013567ffffffffffffffff8111156124b657600080fd5b6124c287828801612360565b91505092959194509250565b600080604083850312156124e157600080fd5b60006124ef8582860161230c565b925050602061250085828601612321565b9150509250929050565b6000806040838503121561251d57600080fd5b600061252b8582860161230c565b925050602061253c8582860161238a565b9150509250929050565b60006020828403121561255857600080fd5b600061256684828501612336565b91505092915050565b60006020828403121561258157600080fd5b600061258f8482850161234b565b91505092915050565b6000602082840312156125aa57600080fd5b60006125b88482850161238a565b91505092915050565b6125ca81613684565b82525050565b6125d981613696565b82525050565b60006125ea8261352c565b6125f48185613542565b9350612604818560208601613707565b61260d816138a2565b840191505092915050565b600061262382613537565b61262d8185613553565b935061263d818560208601613707565b612646816138a2565b840191505092915050565b600061265c82613537565b6126668185613564565b9350612676818560208601613707565b80840191505092915050565b6000815461268f8161373a565b6126998186613564565b945060018216600081146126b457600181146126c5576126f8565b60ff198316865281860193506126f8565b6126ce85613517565b60005b838110156126f0578154818901526001820191506020810190506126d1565b838801955050505b50505092915050565b600061270e603283613553565b91507f4552433732313a207472616e7366657220746f206e6f6e20455243373231526560008301527f63656976657220696d706c656d656e74657200000000000000000000000000006020830152604082019050919050565b6000612774601c83613553565b91507f4552433732313a20746f6b656e20616c7265616479206d696e746564000000006000830152602082019050919050565b60006127b4602483613553565b91507f4552433732313a207472616e7366657220746f20746865207a65726f2061646460008301527f72657373000000000000000000000000000000000000000000000000000000006020830152604082019050919050565b600061281a601983613553565b91507f4552433732313a20617070726f766520746f2063616c6c6572000000000000006000830152602082019050919050565b600061285a606383613564565b91507f222c20226465736372697074696f6e223a20224120686967686c79206163636c60008301527f61696d656420636f6c6c656374696f6e206f6620737175617265732e222c202260208301527f696d616765223a2022646174613a696d6167652f7376672b786d6c3b6261736560408301527f36342c00000000000000000000000000000000000000000000000000000000006060830152606382019050919050565b600061290c601a83613553565b91507f4f6e6c79203530204e4654732063616e206265206d696e7465640000000000006000830152602082019050919050565b600061294c600b83613564565b91507f5345434f4e445f574f52440000000000000000000000000000000000000000006000830152600b82019050919050565b600061298c602c83613553565b91507f4552433732313a206f70657261746f7220717565727920666f72206e6f6e657860008301527f697374656e7420746f6b656e00000000000000000000000000000000000000006020830152604082019050919050565b60006129f2600d83613564565b91507f3c2f746578743e3c2f7376673e000000000000000000000000000000000000006000830152600d82019050919050565b6000612a32600183613564565b91507f20000000000000000000000000000000000000000000000000000000000000006000830152600182019050919050565b6000612a72603883613553565b91507f4552433732313a20617070726f76652063616c6c6572206973206e6f74206f7760008301527f6e6572206e6f7220617070726f76656420666f7220616c6c00000000000000006020830152604082019050919050565b6000612ad8602a83613553565b91507f4552433732313a2062616c616e636520717565727920666f7220746865207a6560008301527f726f2061646472657373000000000000000000000000000000000000000000006020830152604082019050919050565b6000612b3e602983613553565b91507f4552433732313a206f776e657220717565727920666f72206e6f6e657869737460008301527f656e7420746f6b656e00000000000000000000000000000000000000000000006020830152604082019050919050565b6000612ba4602e83613553565b91507f45524337323155524953746f726167653a2055524920736574206f66206e6f6e60008301527f6578697374656e7420746f6b656e0000000000000000000000000000000000006020830152604082019050919050565b6000612c0a600283613564565b91507f227d0000000000000000000000000000000000000000000000000000000000006000830152600282019050919050565b6000612c4a602083613553565b91507f4552433732313a206d696e7420746f20746865207a65726f20616464726573736000830152602082019050919050565b6000612c8a603183613553565b91507f45524337323155524953746f726167653a2055524920717565727920666f722060008301527f6e6f6e6578697374656e7420746f6b656e0000000000000000000000000000006020830152604082019050919050565b6000612cf0602c83613553565b91507f4552433732313a20617070726f76656420717565727920666f72206e6f6e657860008301527f697374656e7420746f6b656e00000000000000000000000000000000000000006020830152604082019050919050565b6000612d56602983613553565b91507f4552433732313a207472616e73666572206f6620746f6b656e2074686174206960008301527f73206e6f74206f776e00000000000000000000000000000000000000000000006020830152604082019050919050565b6000612dbc602f83613553565b91507f4552433732314d657461646174613a2055524920717565727920666f72206e6f60008301527f6e6578697374656e7420746f6b656e00000000000000000000000000000000006020830152604082019050919050565b6000612e22600a83613564565b91507f7b226e616d65223a2022000000000000000000000000000000000000000000006000830152600a82019050919050565b6000612e62602183613553565b91507f4552433732313a20617070726f76616c20746f2063757272656e74206f776e6560008301527f72000000000000000000000000000000000000000000000000000000000000006020830152604082019050919050565b6000612ec8600a83613564565b91507f46495253545f574f5244000000000000000000000000000000000000000000006000830152600a82019050919050565b6000612f08601d83613564565b91507f646174613a6170706c69636174696f6e2f6a736f6e3b6261736536342c0000006000830152601d82019050919050565b6000612f48603183613553565b91507f4552433732313a207472616e736665722063616c6c6572206973206e6f74206f60008301527f776e6572206e6f7220617070726f7665640000000000000000000000000000006020830152604082019050919050565b6000612fae600583613564565b91507f434f4c4f520000000000000000000000000000000000000000000000000000006000830152600582019050919050565b612fea816136ee565b82525050565b6000612ffc8284612651565b915081905092915050565b60006130138285612651565b915061301f8284612651565b91508190509392505050565b60006130378285612651565b915061304282612a25565b915061304e8284612651565b91508190509392505050565b60006130668287612682565b91506130728286612651565b915061307e8285612682565b915061308a8284612651565b9150613095826129e5565b915081905095945050505050565b60006130ae8261293f565b91506130ba8284612651565b915081905092915050565b60006130d082612e15565b91506130dc8285612651565b91506130e78261284d565b91506130f38284612651565b91506130fe82612bfd565b91508190509392505050565b600061311582612ebb565b91506131218284612651565b915081905092915050565b600061313782612efb565b91506131438284612651565b915081905092915050565b600061315982612fa1565b91506131658284612651565b915081905092915050565b600060208201905061318560008301846125c1565b92915050565b60006080820190506131a060008301876125c1565b6131ad60208301866125c1565b6131ba6040830185612fe1565b81810360608301526131cc81846125df565b905095945050505050565b60006040820190506131ec60008301856125c1565b6131f96020830184612fe1565b9392505050565b600060208201905061321560008301846125d0565b92915050565b600060208201905081810360008301526132358184612618565b905092915050565b600060608201905081810360008301526132578186612618565b90506132666020830185612fe1565b61327360408301846125c1565b949350505050565b6000602082019050818103600083015261329481612701565b9050919050565b600060208201905081810360008301526132b481612767565b9050919050565b600060208201905081810360008301526132d4816127a7565b9050919050565b600060208201905081810360008301526132f48161280d565b9050919050565b60006020820190508181036000830152613314816128ff565b9050919050565b600060208201905081810360008301526133348161297f565b9050919050565b6000602082019050818103600083015261335481612a65565b9050919050565b6000602082019050818103600083015261337481612acb565b9050919050565b6000602082019050818103600083015261339481612b31565b9050919050565b600060208201905081810360008301526133b481612b97565b9050919050565b600060208201905081810360008301526133d481612c3d565b9050919050565b600060208201905081810360008301526133f481612c7d565b9050919050565b6000602082019050818103600083015261341481612ce3565b9050919050565b6000602082019050818103600083015261343481612d49565b9050919050565b6000602082019050818103600083015261345481612daf565b9050919050565b6000602082019050818103600083015261347481612e55565b9050919050565b6000602082019050818103600083015261349481612f3b565b9050919050565b60006020820190506134b06000830184612fe1565b92915050565b6000604051905081810181811067ffffffffffffffff821117156134dd576134dc613873565b5b8060405250919050565b600067ffffffffffffffff82111561350257613501613873565b5b601f19601f8301169050602081019050919050565b60008190508160005260206000209050919050565b600081519050919050565b600081519050919050565b600082825260208201905092915050565b600082825260208201905092915050565b600081905092915050565b600061357a826136ee565b9150613585836136ee565b9250827fffffffffffffffffffffffffffffffffffffffffffffffffffffffffffffffff038211156135ba576135b96137e6565b5b828201905092915050565b60006135d0826136ee565b91506135db836136ee565b9250826135eb576135ea613815565b5b828204905092915050565b6000613601826136ee565b915061360c836136ee565b9250817fffffffffffffffffffffffffffffffffffffffffffffffffffffffffffffffff0483118215151615613645576136446137e6565b5b828202905092915050565b600061365b826136ee565b9150613666836136ee565b925082821015613679576136786137e6565b5b828203905092915050565b600061368f826136ce565b9050919050565b60008115159050919050565b60007fffffffff0000000000000000000000000000000000000000000000000000000082169050919050565b600073ffffffffffffffffffffffffffffffffffffffff82169050919050565b6000819050919050565b82818337600083830152505050565b60005b8381101561372557808201518184015260208101905061370a565b83811115613734576000848401525b50505050565b6000600282049050600182168061375257607f821691505b6020821081141561376657613765613844565b5b50919050565b6000613777826136ee565b91507fffffffffffffffffffffffffffffffffffffffffffffffffffffffffffffffff8214156137aa576137a96137e6565b5b600182019050919050565b60006137c0826136ee565b91506137cb836136ee565b9250826137db576137da613815565b5b828206905092915050565b7f4e487b7100000000000000000000000000000000000000000000000000000000600052601160045260246000fd5b7f4e487b7100000000000000000000000000000000000000000000000000000000600052601260045260246000fd5b7f4e487b7100000000000000000000000000000000000000000000000000000000600052602260045260246000fd5b7f4e487b7100000000000000000000000000000000000000000000000000000000600052604160045260246000fd5b6000601f19601f8301169050919050565b6138bc81613684565b81146138c757600080fd5b50565b6138d381613696565b81146138de57600080fd5b50565b6138ea816136a2565b81146138f557600080fd5b50565b613901816136ee565b811461390c57600080fd5b5056fe416e204e465420772f20494420257320686173206265656e206d696e74656420746f2025734142434445464748494a4b4c4d4e4f505152535455565758595a6162636465666768696a6b6c6d6e6f707172737475767778797a303132333435363738392b2fa2646970667358221220ee5cd97214d66b1541afa4178712c7c1a6947c0990a7ff4d13813f81b3dba7bb64736f6c634300080000333c73766720786d6c6e733d27687474703a2f2f7777772e77332e6f72672f323030302f73766727207072657365727665417370656374526174696f3d27784d696e594d696e206d656574272076696577426f783d273020302033353020333530273e3c7374796c653e2e62617365207b2066696c6c3a2077686974653b20666f6e742d66616d696c793a2073657269663b20666f6e742d73697a653a20323470783b207d3c2f7374796c653e3c726563742077696474683d273130302527206865696768743d2731303025272066696c6c3d27272f3e3c7465787420783d273530252720793d273530252720636c6173733d27626173652720646f6d696e616e742d626173656c696e653d276d6964646c652720746578742d616e63686f723d276d6964646c65273e",
  "linkReferences": {},
  "deployedLinkReferences": {}
}